:0300000002047483
:0C047400787FE4F6D8FD7581760204BBA9
:02095C00002277
:080929007F017E01DEFEDFFA12
:0109310022A3
:0C08EC007F057E047DF8DDFEDEFADFF6FD
:0108F80022DD
:0D08DE007F2E7E987D46DDFEDEFADFF600FF
:0108EB0022EA
:1006E600E4F549F54A75170220A407AF170517EF79
:1006F60070F6120929120929120929E4F51830A4FD
:100706000375180175170230A407AF170517EF70A8
:10071600F6E51764016013E54925E0F549E5184259
:0C07260049054AE54AC3940840BBAF49AE
:0107320022A4
:10060D00C2A41208EC1208ECD2A41209291209296D
:10061D00120929D2A420A46675170220A407AF17CA
:10062D000517EF70F675170230A407AF170517EF12
:10063D0070F61206E68F451206E68F461206E68F15
:10064D00431206E68F441206E6D2A4E544FDE543C7
:10065D002DFDE433FCE5457A002DFDEA3CFCE54635
:10066D002DFDEA3CFCEFB50515EAB5041175470003
:10067D00854548E548754800F547E5434248AE478E
:02068D00AF4874
:01068F002248
:10083E0012091EEFC4540F75F00AA4FEEF540F2ECA
:0D084E00FF22FD1208F9AB5DAA5EA95F2232
:06082100C2A7C2A5D2A788
:100827007E08EF30E004D2A68002C2A6EFC313FF12
:06083700D2A5C2A5DEEC13
:01083D002298
:10085B00D2A67E08EFC313FF30A6054307808003A3
:09086B0053077FD2A5C2A5DEEB04
:010874002261
:0D08F900120821AF05120827C2A7D2A522C0
:0A091E0012082112085BC2A7D2A53F
:0109280022AC
:100690007FC112091EEF64F0604BE4FD7F8E1208EB
:1006A000F97D167F8C1208F97D047F8A1208F97D86
:1006B000067F881208F97D027F861208F97D097F7E
:1006C000841208F9E4FD7F821208F97F801208F98C
:1006D0007DA57F901208F97DF07FC01208F97D801A
:0606E0007F8E1208F922D2
:060500008B5D8A5E895F3D
:10050600E4FF1208548F827583001202E0FE75F034
:100516000A84C454F0FDEE75F00A84ED25F08F824E
:1005260075830012030D0FBF06D8E47F8E120850A4
:100536001202C77F8C1208509000011202E0FD7F64
:10054600881208519000021202E0FD7F86120851BF
:100556009000031202E0FD7F8A12085190000412F7
:1005660002E0FD7F841208519000051202E0FD7F33
:10057600821208F9E4FD7F801208F97D807F8E02E1
:0205860008F972
:050932007F8112083E68
:01093700229D
:050938007F8312083E60
:01093D002297
:05093E007F8512083E58
:010943002291
:050944007F8712083E50
:01094900228B
:05094A007F8912083E48
:01094F002285
:050950007F8B12083E40
:01095500227F
:050956007F8D12083E38
:01095B002279
:0C090600001F1C1F1E1F1E1F1F1E1F1E97
:10087500061000000000000006080000000000004F
:09088500010E00011600010F0034
:07000300740F250EF8E62240
:1008CE00758901758C3C758AB0D2AFD2A9D28C22B3
:10000E0078377C007D007BFF7A0979067E007F0CB5
:10001E001202A17590FF1206901209328F32E4F58A
:10002E002974212529F876FF0529E529B408F2124D
:10003E0001C7D2A11208DEC2A12090030200F22055
:10004E0093030200F2E50E60030200F21209328FF2
:10005E0029E5322402FFE433FEC3E5299FEE6480D6
:10006E00F8748098400912060D8E338F348004E5A3
:10007E00297003852932E534F527E533F528E4F5B3
:10008E00291209568F2985292112094A8F29852976
:10009E00221209448F298529231209508F29852977
:1000AE002412093E8F298529251209388F29852981
:1000BE0026C200E4F52974212529F8E6FF742A25C5
:1000CE0029F8E66F6009742A2529F8A607D20005DB
:1000DE0029E529B408E02000030200471201C7C237
:1000EE00000200472090381208EC2090323090FD2C
:1000FE00E4FF74212FF8E6FE74102FF8A606742183
:10010E002FF8E6FE74082FF8A6060FBF06E41208B5
:10011E00CE7508EE750E01753563E4F536F516E508
:10012E000E70030200472090561208EC20905030BB
:10013E0090FDE50E0424FD601214601914601E1467
:10014E0060202404702275350C800D74372511F84B
:10015E00E6F5358003753507753601800B75351755
:10016E00800375353BE4F536120003FF7407250E48
:10017E00F8A6077408250EF876EE050EE4F516209F
:10018E0091171208EC2091113091FD120003B53534
:10019E0004A6368001067516012092831208EC30F3
:1001AE00920302012D3092FD120003B53604A635DE
:0901BE0080011675160102012DE5
:0A01C7007B007A00792112032F2239
:03000B0002058863
:10058800C0E0C0F0C083C082C0D075D000C000C039
:1005980001C002C003C004C005C006C007758C3C7A
:1005A800758AB0050FE50FC3940A40050516750F47
:1005B80000E50E6014E5167B0020E0067A00790855
:1005C80080047A0079101203D5E50EC3940750070A
:1005D800E516C394074013750E007516007B007A64
:1005E800007910120500C28CC2AFD007D006D00522
:1005F800D004D003D002D001D000D0D0D082D08394
:05060800D0F0D0E0324B
:0C0912003F065B4F666D7D077F6F40085D
:1008A500AB43AA44A9458F827583000202E0AB5D84
:0508B500AA5EA95F220C
:10088F00D2A2D2A312095CD2A212095CC2A212098F
:06089F0029C2A302095C5E
:1008BA00D2A312095CC2A212095CD2A212095CC2BA
:0408CA00A3C2A22201
:0207C1008F5B4C
:1007C300E4F55CC2A3E55B30E004D2A28002C2A2DE
:1007D300120929D2A3E55BC313F55B055CE55CC392
:0E07E300940840DFC2A3120929C2A202095CD9
:060733008B578A5889591A
:1007390012088F7F401207C11208BA12088F7FC0B2
:100749001207C1E4F55AAB57AA58A959855A82121A
:1007590008AD90091293FF1207C1055AE55AC394CF
:100769001040E31208BA12088F7F8A1207C10208E3
:01077900BAC5
:06032F008B438A4489455E
:10033500E4FF7403C39FEF400625E0F556800525CD
:10034500E014F556EF640360401208A5FEB4FF0BF8
:1003550074462556F8760A74478037EEB4EE0B746A
:10036500462556F8760B744780351208A575F00AB0
:1003750084FE74462556F8A6061208AB75F00A8465
:1003850074472556F8A6F080351208A5FEB4FF0976
:1003950074462556F8760A8025EEB4EE097446258E
:1003A50056F8760B80181208A5FE64076009744696
:1003B5002556F8A606800774462556F876080FEFE9
:1003C500640860030203377B007A0079460207332D
:0207F1008F7502
:1007F300E4F576C2A3E57530E004D2A28002C2A27A
:10080300120929D2A3E575C313F5750576E576C3F9
:0E081300940840DFC2A3120929C2A202095CA8
:06077A008B718A72897385
:1007800012088F7F401207F11208BA12088F7FC03B
:100790001207F1E4F574AB71AA72A9738574821221
:1007A00008AD90091293FF1207F10574E574C39424
:1007B0001040E31208BA12088F7F8A1207F102086C
:0107C000BA7E
:0603D5008B5D8A5E895F6A
:1003DB007F04786B740AF608DFFCE4FF7403C39F99
:1003EB00EF400625E0F570800525E014F570EF640D
:1003FB000360351208B31208ABFEB4EE0B74602524
:10040B0070F8760B7461802C1208B3EE75F00A84C9
:10041B00FE74602570F8A6061208AB75F00A84749A
:10042B00612570F8A6F0802F1208B31208ABFEB44A
:10043B00EE0974602570F8760B801CEE6407601073
:10044B001208B31208ABFE74602570F8A60680077D
:10045B0074602570F876080FEF640660030203E7FB
:09046B007B007A00796002077A37
:1004800002000EE493A3F8E493A34003F68001F284
:1004900008DFF48029E493A3F85407240CC8C3337D
:1004A000C4540F4420C8834004F456800146F6DF4C
:1004B000E4800B0102040810204080900875E47E5F
:1004C000019360BCA3FF543F30E509541FFEE49341
:1004D000A360010ECF54C025E060A840B8E493A308
:1004E000FAE493A3F8E493A3C8C582C8CAC583CA33
:1004F000F0A3C8C582C8CAC583CADFE9DEE780BEEB
:01088E000069
:1001D100E709F608DFFA8046E709F208DFFA803E10
:1001E10088828C83E709F0A3DFFA8032E309F608FD
:1001F100DFFA8078E309F208DFFA807088828C8365
:10020100E309F0A3DFFA806489828A83E0A3F60818
:10021100DFFA805889828A83E0A3F208DFFA804CF2
:1002210080D280FA80C680D4806980F280338010C9
:1002310080A680EA809A80A880DA80E280CA803332
:1002410089828A83ECFAE493A3C8C582C8CCC583AA
:10025100CCF0A3C8C582C8CCC583CCDFE9DEE7807A
:100261000D89828A83E493A3F608DFF9ECFAA9F0F9
:10027100EDFB2289828A83ECFAE0A3C8C582C8CC4F
:10028100C583CCF0A3C8C582C8CCC583CCDFEADE68
:10029100E880DB89828A83E493A3F208DFF980CCCA
:1002A10088F0EF60010E4E60C388F0ED2402B404C3
:1002B1000050B9F582EB2402B4040050AF2323456A
:0602C1008223900221736C
:1002C700BB010689828A83E0225002E722BBFE0235
:0902D700E32289828A83E4932268
:1002E000BB010CE58229F582E5833AF583E02250D3
:1002F00006E92582F8E622BBFE06E92582F8E2221D
:0D030000E58229F582E5833AF583E4932236
:10030D00F8BB010DE58229F582E5833AF583E8F026
:10031D00225006E92582C8F622BBFE05E92582C8D2
:02032D00F222BA
:00000001FF
